{
  "contractName": "AccessControl",
  "abi": [
    {
      "inputs": [
        {
          "internalType": "contract IdentityRegistration",
          "name": "_identityRegistration",
          "type": "address"
        }
      ],
      "stateMutability": "nonpayable",
      "type": "constructor"
    },
    {
      "anonymous": false,
      "inputs": [
        {
          "indexed": false,
          "internalType": "address",
          "name": "patient",
          "type": "address"
        }
      ],
      "name": "AccessGranted",
      "type": "event"
    },
    {
      "anonymous": false,
      "inputs": [
        {
          "indexed": false,
          "internalType": "address",
          "name": "patient",
          "type": "address"
        }
      ],
      "name": "AccessRevoked",
      "type": "event"
    },
    {
      "inputs": [
        {
          "internalType": "address",
          "name": "",
          "type": "address"
        }
      ],
      "name": "authorizedPatients",
      "outputs": [
        {
          "internalType": "bool",
          "name": "",
          "type": "bool"
        }
      ],
      "stateMutability": "view",
      "type": "function",
      "constant": true
    },
    {
      "inputs": [],
      "name": "identityRegistration",
      "outputs": [
        {
          "internalType": "contract IdentityRegistration",
          "name": "",
          "type": "address"
        }
      ],
      "stateMutability": "view",
      "type": "function",
      "constant": true
    },
    {
      "inputs": [
        {
          "internalType": "address",
          "name": "_patientAddress",
          "type": "address"
        }
      ],
      "name": "grantAccess",
      "outputs": [],
      "stateMutability": "nonpayable",
      "type": "function"
    },
    {
      "inputs": [
        {
          "internalType": "address",
          "name": "_patientAddress",
          "type": "address"
        }
      ],
      "name": "revokeAccess",
      "outputs": [],
      "stateMutability": "nonpayable",
      "type": "function"
    },
    {
      "inputs": [
        {
          "internalType": "address",
          "name": "_patientAddress",
          "type": "address"
        }
      ],
      "name": "hasAccess",
      "outputs": [
        {
          "internalType": "bool",
          "name": "",
          "type": "bool"
        }
      ],
      "stateMutability": "view",
      "type": "function",
      "constant": true
    }
  ],
  "bytecode": "0x608060405234801561001057600080fd5b506040516108ba3803806108ba833981810160405281019061003291906100ed565b806000806101000a81548173ffffffffffffffffffffffffffffffffffffffff021916908373ffffffffffffffffffffffffffffffffffffffff1602179055505061011a565b600080fd5b600073ffffffffffffffffffffffffffffffffffffffff82169050919050565b60006100a88261007d565b9050919050565b60006100ba8261009d565b9050919050565b6100ca816100af565b81146100d557600080fd5b50565b6000815190506100e7816100c1565b92915050565b60006020828403121561010357610102610078565b5b6000610111848285016100d8565b91505092915050565b610791806101296000396000f3fe608060405234801561001057600080fd5b50600436106100575760003560e01c80630ae5e7391461005c5780630de3a8011461007857806385e685311461009657806395a078e8146100b2578063c8c18f30146100e2575b600080fd5b610076600480360381019061007191906103f0565b610112565b005b6100806101a3565b60405161008d919061047c565b60405180910390f35b6100b060048036038101906100ab91906103f0565b6101c7565b005b6100cc60048036038101906100c791906103f0565b610259565b6040516100d991906104b2565b60405180910390f35b6100fc60048036038101906100f791906103f0565b61035e565b60405161010991906104b2565b60405180910390f35b60018060008373ffffffffffffffffffffffffffffffffffffffff1673ffffffffffffffffffffffffffffffffffffffff16815260200190815260200160002060006101000a81548160ff0219169083151502179055507fdeb5c31899474fe8c086c95ff9344480d19365676a6a1d22d37bb8e3e7c0ef188160405161019891906104dc565b60405180910390a150565b60008054906101000a900473ffffffffffffffffffffffffffffffffffffffff1681565b6000600160008373ffffffffffffffffffffffffffffffffffffffff1673ffffffffffffffffffffffffffffffffffffffff16815260200190815260200160002060006101000a81548160ff0219169083151502179055507f1b9b72fde9da721e70e6aca3b0cf4cbe73e82765ef1f280157740376531bfdd88160405161024e91906104dc565b60405180910390a150565b60008060008054906101000a900473ffffffffffffffffffffffffffffffffffffffff1673ffffffffffffffffffffffffffffffffffffffff1663f653b81e846040518263ffffffff1660e01b81526004016102b591906104dc565b600060405180830381865afa1580156102d2573d6000803e3d6000fd5b505050506040513d6000823e3d601f19601f820116820180604052508101906102fb91906106d8565b93505050508080156103565750600160008473ffffffffffffffffffffffffffffffffffffffff1673ffffffffffffffffffffffffffffffffffffffff16815260200190815260200160002060009054906101000a900460ff165b915050919050565b60016020528060005260406000206000915054906101000a900460ff1681565b6000604051905090565b600080fd5b600080fd5b600073ffffffffffffffffffffffffffffffffffffffff82169050919050565b60006103bd82610392565b9050919050565b6103cd816103b2565b81146103d857600080fd5b50565b6000813590506103ea816103c4565b92915050565b60006020828403121561040657610405610388565b5b6000610414848285016103db565b91505092915050565b6000819050919050565b600061044261043d61043884610392565b61041d565b610392565b9050919050565b600061045482610427565b9050919050565b600061046682610449565b9050919050565b6104768161045b565b82525050565b6000602082019050610491600083018461046d565b92915050565b60008115159050919050565b6104ac81610497565b82525050565b60006020820190506104c760008301846104a3565b92915050565b6104d6816103b2565b82525050565b60006020820190506104f160008301846104cd565b92915050565b600081519050610506816103c4565b92915050565b600080fd5b600080fd5b6000601f19601f8301169050919050565b7f4e487b7100000000000000000000000000000000000000000000000000000000600052604160045260246000fd5b61055f82610516565b810181811067ffffffffffffffff8211171561057e5761057d610527565b5b80604052505050565b600061059161037e565b905061059d8282610556565b919050565b600067ffffffffffffffff8211156105bd576105bc610527565b5b6105c682610516565b9050602081019050919050565b60005b838110156105f15780820151818401526020810190506105d6565b83811115610600576000848401525b50505050565b6000610619610614846105a2565b610587565b90508281526020810184848401111561063557610634610511565b5b6106408482856105d3565b509392505050565b600082601f83011261065d5761065c61050c565b5b815161066d848260208601610606565b91505092915050565b6000819050919050565b61068981610676565b811461069457600080fd5b50565b6000815190506106a681610680565b92915050565b6106b581610497565b81146106c057600080fd5b50565b6000815190506106d2816106ac565b92915050565b600080600080608085870312156106f2576106f1610388565b5b6000610700878288016104f7565b945050602085015167ffffffffffffffff8111156107215761072061038d565b5b61072d87828801610648565b935050604061073e87828801610697565b925050606061074f878288016106c3565b9150509295919450925056fea26469706673582212205064b422a8180feb52a70b805bb42ca1d36a273df5b7c76b209b3e0b79044c2d64736f6c634300080d0033",
  "immutableReferences": {},
  "source": "// SPDX-License-Identifier: MIT\r\npragma solidity ^0.8.0;\r\n\r\nimport \"./IdentityRegistration.sol\";\r\n\r\ncontract AccessControl {\r\n    IdentityRegistration public identityRegistration;\r\n    mapping(address => bool) public authorizedPatients;\r\n\r\n    event AccessGranted(address patient);\r\n    event AccessRevoked(address patient);\r\n\r\n    constructor(IdentityRegistration _identityRegistration){\r\n        identityRegistration = _identityRegistration;\r\n    }\r\n    \r\n    function grantAccess(address _patientAddress) public {\r\n        authorizedPatients[_patientAddress] = true;\r\n        emit AccessGranted(_patientAddress);\r\n    }\r\n\r\n    function revokeAccess(address _patientAddress) public {\r\n        authorizedPatients[_patientAddress] = false;\r\n        emit AccessRevoked(_patientAddress);\r\n    }\r\n\r\n    function hasAccess(address _patientAddress) external view returns (bool) {\r\n        (, , , bool isVerified) = identityRegistration.identities(_patientAddress);\r\n        return isVerified && authorizedPatients[_patientAddress];\r\n    }\r\n}\r\n",
  "sourcePath": "D:\\College\\Semester 6\\BLockchain\\Project\\project\\contracts\\AccessControl.sol",
  "compiler": {
    "name": "solc",
    "version": "0.8.13+commit.abaa5c0e.Emscripten.clang"
  },
  "schemaVersion": "3.4.16",
  "updatedAt": "2024-05-02T13:42:35.774Z",
  "networkType": "ethereum",
  "devdoc": {
    "kind": "dev",
    "methods": {},
    "version": 1
  },
  "userdoc": {
    "kind": "user",
    "methods": {},
    "version": 1
  }
}