{
  "contractName": "IdentityRegistration",
  "abi": [
    {
      "anonymous": false,
      "inputs": [
        {
          "indexed": true,
          "internalType": "address",
          "name": "patientAddress",
          "type": "address"
        },
        {
          "indexed": false,
          "internalType": "string",
          "name": "name",
          "type": "string"
        },
        {
          "indexed": false,
          "internalType": "uint256",
          "name": "dateOfBirth",
          "type": "uint256"
        }
      ],
      "name": "IdentityRegistered",
      "type": "event"
    },
    {
      "inputs": [
        {
          "internalType": "address",
          "name": "",
          "type": "address"
        }
      ],
      "name": "identities",
      "outputs": [
        {
          "internalType": "address",
          "name": "patientAddress",
          "type": "address"
        },
        {
          "internalType": "string",
          "name": "name",
          "type": "string"
        },
        {
          "internalType": "uint256",
          "name": "dateOfBirth",
          "type": "uint256"
        },
        {
          "internalType": "bool",
          "name": "isVerified",
          "type": "bool"
        }
      ],
      "stateMutability": "view",
      "type": "function",
      "constant": true
    },
    {
      "inputs": [
        {
          "internalType": "string",
          "name": "_name",
          "type": "string"
        },
        {
          "internalType": "uint256",
          "name": "_dateOfBirth",
          "type": "uint256"
        }
      ],
      "name": "registerIdentity",
      "outputs": [],
      "stateMutability": "nonpayable",
      "type": "function"
    },
    {
      "inputs": [
        {
          "internalType": "address",
          "name": "_patientAddress",
          "type": "address"
        },
        {
          "internalType": "bool",
          "name": "_isVerified",
          "type": "bool"
        }
      ],
      "name": "updateIdentityVerificationStatus",
      "outputs": [],
      "stateMutability": "nonpayable",
      "type": "function"
    }
  ],
  "bytecode": "0x608060405234801561001057600080fd5b50610aea806100206000396000f3fe608060405234801561001057600080fd5b50600436106100415760003560e01c80630f54a92414610046578063264f1b0314610062578063f653b81e1461007e575b600080fd5b610060600480360381019061005b91906106ec565b6100b1565b005b61007c600480360381019061007791906107de565b6102de565b005b6100986004803603810190610093919061081e565b6103d4565b6040516100a89493929190610900565b60405180910390f35b600073ffffffffffffffffffffffffffffffffffffffff166000803373ffffffffffffffffffffffffffffffffffffffff1673ffffffffffffffffffffffffffffffffffffffff16815260200190815260200160002060000160009054906101000a900473ffffffffffffffffffffffffffffffffffffffff1673ffffffffffffffffffffffffffffffffffffffff1614610181576040517f08c379a000000000000000000000000000000000000000000000000000000000815260040161017890610998565b60405180910390fd5b60405180608001604052803373ffffffffffffffffffffffffffffffffffffffff168152602001838152602001828152602001600015158152506000803373ffffffffffffffffffffffffffffffffffffffff1673ffffffffffffffffffffffffffffffffffffffff16815260200190815260200160002060008201518160000160006101000a81548173ffffffffffffffffffffffffffffffffffffffff021916908373ffffffffffffffffffffffffffffffffffffffff160217905550602082015181600101908051906020019061025c9291906104b9565b506040820151816002015560608201518160030160006101000a81548160ff0219169083151502179055509050503373ffffffffffffffffffffffffffffffffffffffff167fd4fdac2cfdd2237cae850c44ae04c28c522db0046be8c55e19eab3849fbbbdec83836040516102d29291906109b8565b60405180910390a25050565b60008060008473ffffffffffffffffffffffffffffffffffffffff1673ffffffffffffffffffffffffffffffffffffffff1681526020019081526020016000209050600073ffffffffffffffffffffffffffffffffffffffff168160000160009054906101000a900473ffffffffffffffffffffffffffffffffffffffff1673ffffffffffffffffffffffffffffffffffffffff16036103b3576040517f08c379a00000000000000000000000000000000000000000000000000000000081526004016103aa90610a34565b60405180910390fd5b818160030160006101000a81548160ff021916908315150217905550505050565b60006020528060005260406000206000915090508060000160009054906101000a900473ffffffffffffffffffffffffffffffffffffffff169080600101805461041d90610a83565b80601f016020809104026020016040519081016040528092919081815260200182805461044990610a83565b80156104965780601f1061046b57610100808354040283529160200191610496565b820191906000526020600020905b81548152906001019060200180831161047957829003601f168201915b5050505050908060020154908060030160009054906101000a900460ff16905084565b8280546104c590610a83565b90600052602060002090601f0160209004810192826104e7576000855561052e565b82601f1061050057805160ff191683800117855561052e565b8280016001018555821561052e579182015b8281111561052d578251825591602001919060010190610512565b5b50905061053b919061053f565b5090565b5b80821115610558576000816000905550600101610540565b5090565b6000604051905090565b600080fd5b600080fd5b600080fd5b600080fd5b6000601f19601f8301169050919050565b7f4e487b7100000000000000000000000000000000000000000000000000000000600052604160045260246000fd5b6105c38261057a565b810181811067ffffffffffffffff821117156105e2576105e161058b565b5b80604052505050565b60006105f561055c565b905061060182826105ba565b919050565b600067ffffffffffffffff8211156106215761062061058b565b5b61062a8261057a565b9050602081019050919050565b82818337600083830152505050565b600061065961065484610606565b6105eb565b90508281526020810184848401111561067557610674610575565b5b610680848285610637565b509392505050565b600082601f83011261069d5761069c610570565b5b81356106ad848260208601610646565b91505092915050565b6000819050919050565b6106c9816106b6565b81146106d457600080fd5b50565b6000813590506106e6816106c0565b92915050565b6000806040838503121561070357610702610566565b5b600083013567ffffffffffffffff8111156107215761072061056b565b5b61072d85828601610688565b925050602061073e858286016106d7565b9150509250929050565b600073ffffffffffffffffffffffffffffffffffffffff82169050919050565b600061077382610748565b9050919050565b61078381610768565b811461078e57600080fd5b50565b6000813590506107a08161077a565b92915050565b60008115159050919050565b6107bb816107a6565b81146107c657600080fd5b50565b6000813590506107d8816107b2565b92915050565b600080604083850312156107f5576107f4610566565b5b600061080385828601610791565b9250506020610814858286016107c9565b9150509250929050565b60006020828403121561083457610833610566565b5b600061084284828501610791565b91505092915050565b61085481610768565b82525050565b600081519050919050565b600082825260208201905092915050565b60005b83811015610894578082015181840152602081019050610879565b838111156108a3576000848401525b50505050565b60006108b48261085a565b6108be8185610865565b93506108ce818560208601610876565b6108d78161057a565b840191505092915050565b6108eb816106b6565b82525050565b6108fa816107a6565b82525050565b6000608082019050610915600083018761084b565b818103602083015261092781866108a9565b905061093660408301856108e2565b61094360608301846108f1565b95945050505050565b7f4964656e7469747920616c726561647920726567697374657265640000000000600082015250565b6000610982601b83610865565b915061098d8261094c565b602082019050919050565b600060208201905081810360008301526109b181610975565b9050919050565b600060408201905081810360008301526109d281856108a9565b90506109e160208301846108e2565b9392505050565b7f4964656e74697479206e6f742072656769737465726564000000000000000000600082015250565b6000610a1e601783610865565b9150610a29826109e8565b602082019050919050565b60006020820190508181036000830152610a4d81610a11565b9050919050565b7f4e487b7100000000000000000000000000000000000000000000000000000000600052602260045260246000fd5b60006002820490506001821680610a9b57607f821691505b602082108103610aae57610aad610a54565b5b5091905056fea2646970667358221220994c04353d6a5ceffe3339d5cc3620b9c93358593d21b84627a884d55c051fad64736f6c634300080d0033",
  "immutableReferences": {},
  "source": "// SPDX-License-Identifier: MIT\r\npragma solidity ^0.8.0;\r\n\r\ncontract IdentityRegistration {\r\n    struct Identity{\r\n        address patientAddress;\r\n        string name;\r\n        uint dateOfBirth;\r\n        bool isVerified;\r\n    }\r\n\r\n    mapping(address => Identity) public identities;\r\n\r\n    event IdentityRegistered(address indexed patientAddress, string name, uint dateOfBirth);\r\n\r\n    function registerIdentity(string memory _name, uint _dateOfBirth) public {\r\n        require(identities[msg.sender].patientAddress == address(0), \"Identity already registered\");\r\n        identities[msg.sender] = Identity(msg.sender, _name, _dateOfBirth, false);\r\n        emit IdentityRegistered(msg.sender, _name, _dateOfBirth);\r\n    }\r\n\r\n    function updateIdentityVerificationStatus(address _patientAddress, bool _isVerified) external {\r\n        Identity storage identity = identities[_patientAddress];\r\n        require(identity.patientAddress != address(0), \"Identity not registered\");\r\n        identity.isVerified = _isVerified;\r\n    }\r\n}",
  "sourcePath": "D:\\College\\Semester 6\\BLockchain\\Project\\project\\contracts\\IdentityRegistration.sol",
  "compiler": {
    "name": "solc",
    "version": "0.8.13+commit.abaa5c0e.Emscripten.clang"
  },
  "schemaVersion": "3.4.16",
  "updatedAt": "2024-05-02T13:42:35.779Z",
  "networkType": "ethereum",
  "devdoc": {
    "kind": "dev",
    "methods": {},
    "version": 1
  },
  "userdoc": {
    "kind": "user",
    "methods": {},
    "version": 1
  }
}