{
  "contractName": "IdentityVerification",
  "abi": [
    {
      "inputs": [
        {
          "internalType": "address",
          "name": "_identityRegistrationContractAddress",
          "type": "address"
        }
      ],
      "stateMutability": "nonpayable",
      "type": "constructor"
    },
    {
      "anonymous": false,
      "inputs": [
        {
          "indexed": true,
          "internalType": "address",
          "name": "patientAddress",
          "type": "address"
        }
      ],
      "name": "IdentityVerified",
      "type": "event"
    },
    {
      "inputs": [
        {
          "internalType": "address",
          "name": "_patientAddress",
          "type": "address"
        }
      ],
      "name": "verifyIdentity",
      "outputs": [],
      "stateMutability": "nonpayable",
      "type": "function"
    }
  ],
  "bytecode": "0x608060405234801561001057600080fd5b50604051610350380380610350833981810160405281019061003291906100db565b806000806101000a81548173ffffffffffffffffffffffffffffffffffffffff021916908373ffffffffffffffffffffffffffffffffffffffff16021790555050610108565b600080fd5b600073ffffffffffffffffffffffffffffffffffffffff82169050919050565b60006100a88261007d565b9050919050565b6100b88161009d565b81146100c357600080fd5b50565b6000815190506100d5816100af565b92915050565b6000602082840312156100f1576100f0610078565b5b60006100ff848285016100c6565b91505092915050565b610239806101176000396000f3fe608060405234801561001057600080fd5b506004361061002b5760003560e01c8063b5b90fd914610030575b600080fd5b61004a60048036038101906100459190610183565b61004c565b005b60008054906101000a900473ffffffffffffffffffffffffffffffffffffffff1673ffffffffffffffffffffffffffffffffffffffff1663264f1b038260016040518363ffffffff1660e01b81526004016100a89291906101da565b600060405180830381600087803b1580156100c257600080fd5b505af11580156100d6573d6000803e3d6000fd5b505050508073ffffffffffffffffffffffffffffffffffffffff167f02f93fdaafad8edad1ca75101b1fbda62e64ab9afc26d0ea801ccf6ef02c09ab60405160405180910390a250565b600080fd5b600073ffffffffffffffffffffffffffffffffffffffff82169050919050565b600061015082610125565b9050919050565b61016081610145565b811461016b57600080fd5b50565b60008135905061017d81610157565b92915050565b60006020828403121561019957610198610120565b5b60006101a78482850161016e565b91505092915050565b6101b981610145565b82525050565b60008115159050919050565b6101d4816101bf565b82525050565b60006040820190506101ef60008301856101b0565b6101fc60208301846101cb565b939250505056fea26469706673582212206e19e89cb92f33708ceb6515a3dc7871e8b443357224e139a3689c068628d21c64736f6c634300080d0033",
  "immutableReferences": {},
  "source": "// SPDX-License-Identifier: MIT\r\npragma solidity ^0.8.0;\r\n\r\nimport \"./IdentityRegistration.sol\";\r\n\r\ncontract IdentityVerification {\r\n    IdentityRegistration identityRegistrationContract;\r\n\r\n    constructor(address _identityRegistrationContractAddress){\r\n        identityRegistrationContract = IdentityRegistration(_identityRegistrationContractAddress);\r\n    }\r\n\r\n    event IdentityVerified(address indexed patientAddress);\r\n\r\n    function verifyIdentity(address _patientAddress) public {\r\n        identityRegistrationContract.updateIdentityVerificationStatus(_patientAddress, true);\r\n        emit IdentityVerified(_patientAddress);\r\n    }\r\n}",
  "sourcePath": "D:\\College\\Semester 6\\BLockchain\\Project\\project\\contracts\\IdentityVerification.sol",
  "compiler": {
    "name": "solc",
    "version": "0.8.13+commit.abaa5c0e.Emscripten.clang"
  },
  "schemaVersion": "3.4.16",
  "updatedAt": "2024-05-02T13:42:35.408Z",
  "networkType": "ethereum",
  "devdoc": {
    "kind": "dev",
    "methods": {},
    "version": 1
  },
  "userdoc": {
    "kind": "user",
    "methods": {},
    "version": 1
  }
}